:020000040800F2
:10000000B80400209D010008A5010008A701000810
:10001000A9010008AB010008AD01000800000000C4
:10002000000000000000000000000000AF01000818
:10003000B101000800000000B30100081925000804
:10004000B7010008B7010008B7010008B7010008B0
:10005000B7010008B7010008B7010008B7010008A0
:10006000B7010008B7010008B7010008B701000890
:10007000B7010008B7010008B7010008B701000880
:10008000B7010008B7010008B7010008B701000870
:10009000B7010008B7010008B7010008B701000860
:1000A000B7010008B7010008B7010008B701000850
:1000B000B701000845260008B7010008B70100088D
:1000C000B7010008B7010008B7010008B701000830
:1000D000B7010008B7010008B7010008B701000820
:1000E000B7010008B7010008B7010008B701000810
:1000F000B7010008B7010008B7010008B701000800
:10010000B7010008B7010008B7010008B7010008EF
:10011000B7010008B7010008B7010008B7010008DF
:10012000B7010008B7010008B7010008B7010008CF
:10013000B7010008B7010008B7010008B7010008BF
:10014000B7010008B7010008B7010008B7010008AF
:10015000B7010008B7010008B7010008B70100089F
:10016000B7010008B7010008B7010008B70100088F
:10017000B7010008B7010008B7010008000000003F
:10018000B7010008B7010008DFF80CD000F028FB29
:1001900000480047CD3D0008B804002006488047CD
:1001A00006480047FEE7FEE7FEE7FEE7FEE7FEE75C
:1001B000FEE7FEE7FEE7FEE7E1250008890100080B
:1001C00040EA01039B0703D009E008C9121F08C0D9
:1001D000042AFAD203E011F8013B00F8013B521E59
:1001E000F9D270472DE9FE4F804681EA0300C00F27
:1001F0000C46009021F0004123F00045B8EB0200CE
:10020000A94105D24046214690461C460B4602466F
:1002100023F00040104347D0270DC7F30A00C3F373
:100220000A510290401A019040286BDAC3F3130080
:1002300040F4801B0098924620B10023D2EB030AC1
:1002400063EB0B0B01985946C0F14002504600F099
:1002500080F906460D4650465946019A00F088F945
:1002600010EB08006141002487EA115284EAE77329
:100270001A4340D0009A62B3019A012A4FEA07520A
:1002800015DC001B61EB02014FF0004202EA07524D
:10029000CDE90042001C41F5801132462B4600F0AA
:1002A000BFF903B0BDE8F08F40462146F9E7001BD7
:1002B00061EB0201001C41F5801300185B4120181E
:1002C000A2F5001747EB030140EAD570B6196D415E
:1002D00011E06D084FEA360645EAC0754FEA07524D
:1002E000001B61EB0201001C41F5801149084FEA37
:1002F00030000019514132462B4603B0BDE8F04FA3
:1003000000F07FB90098012240000023D0EB0202E8
:1003100063EBE073009821464FEAE074B8EB00000D
:1003200061EB0401E9E783F000435BE781F0004102
:1003300058E72DE9FE4F81EA030404F0004421F060
:10034000004100944FF0000B23F0004350EA0104F9
:100350005ED052EA03045BD0C3F30A54C1F30A55DA
:100360002C44A4F2F3340194A0FB0254C1F3130112
:1003700041F48011C3F3130343F4801301FB0244DF
:1003800000FB034E840A970A44EA815447EA8357E4
:10039000A4FB076802958D0A05FB07854FEA932C9D
:1003A00004FB0C542705029D4FEA065847EA16370E
:1003B000B5EB08056EEB070C870E920E47EA811726
:1003C00042EA8312A7FB0201B6EB0B0164EB0004C7
:1003D0002B0D43EA0C335E1844EB1C50DA465146B1
:1003E000E7FB0201C5F313044FEA0B3343EA14534E
:1003F0004FEA0432019C43EA0603A4F10C04029480
:10040000009CCDE900B400F00BF903B0BDE8F08F1B
:1004100000200146F9E72DE9F04D81EA030404F0DC
:10042000004B21F0004514464FF0000A23F0004134
:1004300050EA050220D054EA01021DD0C5F30A5744
:100440000246C5F31303C1F31300C1F30A5640F487
:10045000801543F48013A7EB0608101BD64608F25C
:10046000FD3873EB050002D308F1010801E0921892
:100470005B41B8F1000F03DA00200146BDE8F08DC2
:1004800000204FF48011064684460EE0171B73EBE4
:10049000050705D3121B63EB050306434CEA010C69
:1004A00049084FEA300092185B4150EA0107EDD14C
:1004B00052EA030012D082EA040083EA05010843ED
:1004C00005D0101BAB4106D20122002306E000221A
:1004D0004FF0004302E06FF0010253101AEB0600E8
:1004E0004CEB085110EB0A0041EB0B01BDE8F04D5D
:1004F00000F087B800F0004230F000400AD0C10D93
:1005000001F56071C0F3160042EA0151C2084007CC
:100510001143704700200146704701F0004330B49A
:1005200021F0004150EA010206D00A0DA2F56072E6
:10053000C1F31301002A02DC30BC00207047440FD5
:1005400044EAC104C100E01830BC00EBC25000F026
:1005500021B8202A04DB203A00FA02F1002070477B
:100560009140C2F1200320FA03F3194390407047F1
:10057000202A06DBCB17203A41FA02F043EAE07367
:1005800006E041FA02F3D040C2F120029140084354
:10059000194670470029A8BF7047401C490008BF92
:1005A00020F00100704710B4B0FA80FC00FA0CF0A3
:1005B00050EA010404BF10BC704749B1CCF12004DB
:1005C00021FA04F411FA0CF118BF01212143084368
:1005D000A3EB0C01CB1D4FEA00614FEA102042BF94
:1005E000002010BC704700EBC35010440029A4BF8A
:1005F00010BC7047401C490008BF20F0010010BC2F
:10060000704710B5141E73F1000408DA401C41F164
:10061000000192185B411A4301D120F0010010BD86
:100620002DE9F04D92469B4611B1B1FA81F202E0FC
:10063000B0FA80F220329046FFF78BFF04460F4657
:1006400040EA0A0041EA0B0153465A46084313D0D8
:10065000114653EA010019D0C8F14002504600F09B
:10066000D1F805460E46504659464246FFF771FFFF
:10067000084305D0012004E020463946BDE8F08D4E
:100680000020054346EAE0762C4337430A98630589
:10069000E40AA0EB08000022FD0A44EA47540A30AD
:1006A00002D500200146E9E7010510196941DDE99D
:1006B000084500196941BDE8F04DA2E770B521F089
:1006C000004303430CD0C1F30A550024D5EB0405C5
:1006D00064EB0403D617AD1AB34102DB00200146D8
:1006E00070BD201841EB025170BD2DE9F04D002383
:1006F0001A461B1A8A4103DB00200146BDE8F08D33
:10070000C1F30A52C1F3130141F480154FF0000BFD
:10071000D10702D100186D41521E0027044640F255
:10072000FF11384601EB620A3E4680460246002031
:100730004FF4801100F066F8C2197141BB1846EB06
:100740000100B4EB030C75EB000C04D3E41A65EB69
:10075000000517460E46241908F101006D41804638
:100760003428E3DDF91946EB0600091BA84103D242
:100770004FF0FF32134601E0002213461BEB070047
:1007800046EB0A51BDE8F04DFFF73BBF0EB5C10F78
:1007900080EAE0700844CA07002140F233438DE844
:1007A0000E000A460B46FFF73BFF03B000BD0000FA
:1007B00030B5041E71F1000404DB4FF000444042E8
:1007C00064EB0101141E73F1000405DB1C464FF0BD
:1007D0000043524263EB0403994208BF904230BD8C
:1007E000064C074D06E0E06840F0010394E807007E
:1007F00098471034AC42F6D3FFF7CAFC70420008A9
:1008000090420008202A04DB203A21FA02F000215D
:10081000704721FA02F3D040C2F120029140084310
:10082000194670472DE9F0412DED108B86B0044636
:100830000D4616469FED5A0A10EE107A00EE104A49
:10084000B8EEC00ADFED570A80EE201ABDEEC10AED
:1008500010EE100A04B200EE105AB8EEC00ADFED36
:10086000510A80EE201ABDEEC10A10EE100A05B240
:1008700000EE106AB8EEC00ADFED4A0A80EE201AD8
:10088000BDEEC10A10EE100A06B200EE104AB8EE34
:10089000C00A10EE100AFFF72DFE41EC1F0B9FED72
:1008A000421BB0EE4F0AF0EE6F0A02F021FB8DED15
:1008B000000B00EE106AB8EEC00A10EE100AFFF747
:1008C00019FE41EC1F0B9FED381BB0EE4F0AF0EE06
:1008D0006F0A02F00DFBB0EE40EAF0EE60EA9DED2B
:1008E000000B53EC102B51EC1E0BFFF77BFC41EC83
:1008F0001D0BB0EE4D0AF0EE6D0A03F021F98DEDFF
:10090000020B00EE105AB8EEC00A10EE100AFFF704
:10091000F1FD41EC1C0B9DED020B53EC102BFFF78E
:100920007AFD41EC1B0BB0EE4B0AF0EE6B0A02F0C5
:1009300073F9B0EE409AF0EE609A3846FFF7DAFDB0
:1009400041EC1C0B53EC1C2B9FED190B51EC100BC5
:10095000FFF761FD41EC1B0BFFF7DFFD8046FFF762
:10096000C9FD41EC1A0B53EC192BFFF7E2FCCDE962
:1009700004019DED040B51EC100BFFF7CEFD00EED2
:10098000100ABDEEC00A10EE100A00B208EE100AFE
:10099000B8EEC80A06B0BDEC108BBDE8F0810000CF
:1009A000DB0F4940000080460000000000000040CE
:1009B00000000000008066402DE9F0412DED108B15
:1009C00086B006460C4615469FED5E0A10EE107A7C
:1009D00000EE106AB8EEC00ADFED5B0A80EE201A66
:1009E000BDEEC10A10EE100A06B200EE104AB8EED3
:1009F000C00ADFED550A80EE201ABDEEC10A10EEE6
:100A0000100A04B200EE105AB8EEC00ADFED4E0A2A
:100A100080EE201ABDEEC10A10EE100A05B200EEFB
:100A2000104AB8EEC00A10EE100AFFF763FD41EC61
:100A30001F0B9FED461BB0EE4F0AF0EE6F0A02F05F
:100A400057FAB0EE40DAF0EE60DA00EE105AB8EE87
:100A5000C00A10EE100AFFF74DFD41EC1F0B9FED91
:100A60003B1BB0EE4F0AF0EE6F0A02F041FAB0EE17
:100A700040EAF0EE60EA53EC1D2B51EC1E0BFFF741
:100A8000B1FB41EC1C0BB0EE4C0AF0EE6C0A03F02B
:100A900057F8B0EE40BAF0EE60BA704200EE100ABD
:100AA000B8EEC00A10EE100AFFF724FD53EC1B2B22
:100AB000CDE900019DED000B51EC100BFFF7ABFCF5
:100AC00041EC1A0BB0EE4A0AF0EE6A0A02F0A4F802
:100AD000B0EE409AF0EE609A3846FFF70BFD41EC1D
:100AE0001B0B53EC1B2B9FED1B0B51EC100BFFF75B
:100AF00092FC41EC1A0BFFF710FD8046FFF7FAFC61
:100B000053EC192BCDE902019DED020B51EC100BBA
:100B1000FFF70FFCCDE904019DED040B51EC100B28
:100B2000FFF7FBFC00EE100ABDEEC00A10EE100A43
:100B300000B208EE100AB8EEC80A06B0BDEC108B81
:100B4000BDE8F081DB0F4940000080460000000056
:100B50000000004000000000008066400BE001F053
:100B600065FC4FF4FA7003F019F901F077FC4FF4CB
:100B7000FA7003F013F9F2E7F8B502460B460025C8
:100B8000002400200021DFE0012606FA01F51E689E
:100B900006EA0504AC4271D15E68022E02D05E689E
:100BA000122E13D1CF0802F1200656F827004E0767
:100BB000F70E0F26BE40B0434F07FF0E1E69BE4022
:100BC0003043CF0802F1200646F8270010684F0096
:100BD0000326BE40B0431E7906F003064F00BE4018
:100BE000304310605E68012E08D05E68022E05D08A
:100BF0005E68112E02D05E68122E13D190684F00ED
:100C00000326BE40B0434F00DE68BE4030439060D4
:100C1000506801268E40B0431E79C6F300168E4000
:100C200030435060D0684F000326BE40B0434F00B1
:100C30009E68BE403043D0605E6806F08056B6F1D4
:100C4000805FA8D100BF424E366846F48046404FD0
:100C50003E603E46366806F48046009600BF00BF00
:100C60003C4E8F0856F827008E07370F0F26BE40E0
:100C7000B043394EB24202D1002629E063E0374E3C
:100C8000B24201D1012623E0354EB24201D1022603
:100C90001EE0344EB24201D1032619E0324EB24278
:100CA00001D1042614E0314EB24201D105260FE0F5
:100CB0002F4EB24201D106260AE02E4EB24201D199
:100CC000072605E02C4EB24201D1082600E0092695
:100CD0008F073F0FBE4030431E4E8F0846F8270057
:100CE000264E3068A0435E6806F48036B6F5803F35
:100CF00000D12043214E3060361D3068A0435E682D
:100D000006F40036B6F5003F00D120431B4E361DD9
:100D10003060361D3068A0435E6806F48016B6F574
:100D2000801F00D12043154E08363060361D3068D4
:100D3000A0435E6806F40016B6F5001F00D12043FC
:100D40000E4E0C363060491C1029FFF41DAFF8BD63
:100D500044380240083801400000024000040240CC
:100D600000080240000C0240001002400014024043
:100D700000180240001C024000200240003C0140DC
:100D8000024613690B400BB1012000E000207047C0
:100D900042694A40426170470AB1816101E00B0437
:100DA0008361704701480068000C7047002004E030
:100DB000014800687047000018000020014691F8C3
:100DC0003500704770B50446002600250CB9012097
:100DD00070BD94F8350028B9002084F8340020460E
:100DE00000F0EEFA022084F835002068006820F058
:100DF00001002168086000F0DDFC05463748B5FBBE
:100E0000F0F62068466036496068884201D8701C58
:100E100007E04FF4967070434FF47A71B0FBF1F035
:100E2000401C216808622E49606888420ED86068BC
:100E30004000B5FBF0F0C0F30B00042801D2042001
:100E40002DE060684000B5FBF0F028E0A06828B90C
:100E5000606800EB4000B5FBF0F008E0606800EB74
:100E6000C00101EB0010B5FBF0F040F48040C0F38E
:100E70000B0008B9012012E0A06828B9606800EBF7
:100E80004000B5FBF0F008E0606800EBC00101EB4A
:100E90000010B5FBF0F040F4804040F400402168C1
:100EA000C861D4E90701084321680860D4E9031048
:100EB000084321688860D4E9050108432168C860B7
:100EC0002068006840F00100216808600020A063ED
:100ED000012084F8350000207AE7000040420F002E
:100EE000A08601002DE9FC5F04460E4617461D460C
:100EF0004FF00008C146C246C3460120019094F855
:100F0000350001287DD142F2107301225749204655
:100F100001F088F810B10220BDE8FC9F00BF94F8F2
:100F20003400012801D10220F6E7012084F83400C2
:100F300000BF2068006820F400602168086002207B
:100F400084F835000020A06300BF2068006840F4EA
:100F50008070216808602B4600224FF00111204666
:100F600001F060F808B10320D6E706F0FE00216822
:100F70000861FFF71DFF804620684069C0F3400903
:100F800020684069C0F3802A94F835B013E02DB191
:100F9000FFF70EFFA0EB0800A84202D9032084F857
:100FA000350020684069C0F3400920684069C0F3FB
:100FB000802A94F835B0B9F1000F05D1BAF1000FCD
:100FC00002D1BBF1030FE2D1012084F83500206883
:100FD0004069C0F3400018B32068006840F4007016
:100FE0002168086000BF206840690090206880691F
:100FF000009000BF00BF42F2107301221B4920463F
:1010000000E031E001F00EF808B1032084E7012090
:1010100084F8350000BF002084F8340000BF7BE76F
:101020002068006840F40070216808606FF48060F8
:101030002168486142F2107301220C49204600F0F9
:10104000F1FF08B1032067E70198411C0191B84204
:10105000FFF47BAF012084F8350000BF002084F846
:10106000340000BF012057E7022055E702001000BE
:101070002DE9F8430446884615461E46089F94F815
:10108000350001287AD105B116B90120BDE8F883F1
:1010900042F2107301228149204600F0C3FF08B1DB
:1010A0000220F3E700BF94F83400012801D10220A8
:1010B000ECE7012084F8340000BF2068006820F4C9
:1010C000006021680860222084F835000020A063B9
:1010D0003A464146204600F0E3FE80B1A06B04286A
:1010E00006D100BF002084F8340000BF0120CDE706
:1010F00000BF002084F8340000BF0320C6E7012EA3
:1011000015D12068006820F480602168086000BF65
:1011100020684069009020688069009000BF00BF8F
:101120002068006840F400702168086025E0022E05
:1011300014D12068006820F480602168086020686D
:10114000006840F400602168086000BF20684069C2
:10115000009020688069009000BF0EE02068006861
:1011600040F480602168086000BF206840690090FA
:1011700020688069009000BF00BF80E08BE0032EF4
:1011800063DC012E0FD13B4600224549204600F08A
:1011900049FF08B1032079E72068006905F8010BD1
:1011A000701E86B26BE0022E1CD13B4600223C49E9
:1011B0003C39204600F036FF08B1032066E720687E
:1011C000006840F40070216808602068006905F834
:1011D000010B701E86B22068006905F8010B701EB5
:1011E00086B24CE03B4600222D493C39204600F0B7
:1011F00019FF08B1032049E72068006820F48060E7
:10120000216808602068006905F8010B701E86B22D
:101210003B46002222493C39204600F003FF08B13A
:10122000032033E72068006840F4007021680860FC
:101230002068006905F8010B701E86B220680069FD
:1012400005F8010B701E86B219E03B4600221449D6
:10125000204600F0E7FE08B1032017E72068006988
:1012600005F8010B701E86B220684069C0F380004B
:1012700028B12068006905F8010B701E86B2002EA7
:101280003FF77DAF012084F8350000BF002084F8CF
:10129000340000BFFAE60220F8E600000200100069
:1012A000400001002DE9F8430446884615461E46D5
:1012B000089F94F8350001287BD105B116B90120AB
:1012C000BDE8F88342F2107301223B49204600F04A
:1012D000A9FE08B10220F3E700BF94F8340001280A
:1012E00001D10220ECE7012084F8340000BF20681F
:1012F000006820F4006021680860122084F835003E
:101300000020A0633A464146204600F045FE80B1E9
:10131000A06B042806D100BF002084F8340000BF71
:101320000120CDE700BF002084F8340000BF032077
:10133000C6E700BF2068406900902068806900907F
:1013400000BF00BF1AE03B4600221C49204600F0C7
:1013500069FE08B10320B3E715F8010B21680861A5
:10136000701E86B220684069C0F3800030B12EB193
:1013700015F8010B21680861701E86B2002EE2DCB0
:101380003B4600220D49204600F04CFE08B10320E8
:1013900096E72068006840F400702168086001202A
:1013A00084F8350000BF002084F8340000BF87E7D0
:1013B000FFE7022084E70000020010008000010027
:1013C0007047000010B50D48006840F400700B49EC
:1013D00008600846006840F48060086008460068BD
:1013E00040F480700860032000F05CF80F2000F0EB
:1013F00007F800F017F8002010BD0000003C024084
:1014000070B5044600F0BAF94FF47A71B0FBF1F50B
:10141000284600F041FC00222146501E00F003F84F
:10142000002070BD70472DE9F05F80460D461646DE
:10143000002700F06DFF074639462A46334601F083
:101440000700C0F1070ABAF1040F02D94FF0040AED
:1014500001E0C0F1070AD14600F1040ABAF1070F12
:1014600002D24FF0000A01E0A0F1030AD4464FF087
:10147000010A0AFA09FAAAF1010A0AEA020A0AFAB0
:101480000CFA4FF0010B0BFA0CFBABF1010B0BEA62
:10149000030B4AEA0B042146404600F041FFBDE839
:1014A000F09F000000BF00F00702064B19684FF6DE
:1014B000FF031940044B0B4343EA0221014B19601F
:1014C00000BF70470CED00E00000FA0570B504465F
:1014D0000E460025A748006800F00F00B0426FD20A
:1014E000A4490E700846006800F00F00B04201D019
:1014F000012070BD207800F00200022807D19E482C
:10150000006820F0F000A16808439B49086020783B
:1015100000F0010000283ED06068012807D19648FD
:1015200008380068C0F34040B8B90120E1E76068BE
:10153000022802D06068032807D18F480838006865
:10154000C0F3406048B90120D3E78B4808380068F1
:10155000C0F3400008B90120CBE78748006820F0BD
:1015600003006168084384490860FFF721FC0546D1
:101570006068012810D108E0FFF71AFC401B41F217
:101580008831884201D90320B3E77B48006800F026
:101590000C000428F0D1CDE06068022811D108E0E9
:1015A000FFF706FC401B41F28831884201D9032035
:1015B0009FE77148006800F00C000828F0D1B9E0FE
:1015C00024E06068032810D108E0FFF7F1FB401B1E
:1015D00041F28831884201D903208AE766480068D1
:1015E00000F00C000328F0D1A4E008E0FFF7E0FBD6
:1015F000401B41F28831884201D9032079E75E48D7
:10160000006800F00C000028F0D193E0207800F092
:101610000200022807D15848006820F0F000A168B5
:10162000084355490860207800F00100002877D071
:101630006068012807D1504808380068C0F340406E
:10164000B8B9012055E76068022802D06068032815
:1016500007D1494808380068C0F3406048B9012004
:1016600047E7454808380068C0F3400008B9012042
:101670003FE74148006820F00300616808433E49A5
:101680000860FFF795FB05466068012810D108E067
:10169000FFF78EFB401B41F28831884201D90320BD
:1016A00027E73548006800F00C000428F0D137E047
:1016B0006068022810D108E0FFF77AFB401B41F276
:1016C0008831884201D9032013E72B48006800F0D5
:1016D0000C000828F0D123E06068032810D108E04E
:1016E000FFF766FB401B41F28831884201D9032095
:1016F000FFE62148006800F00C000328F0D10FE05D
:1017000008E0FFF755FB401B41F28831884201D9C0
:101710000320EEE61848006800F00C000028F0D125
:1017200014490E700846006800F00F00B04201D066
:101730000120DEE6207800F00400042807D10E48DE
:10174000006820F4E050E16808430B490860207805
:1017500000F00800082808D10748006820F460401D
:10176000216940EAC100044908600F20FFF748FEE4
:101770000020BEE6003C02400838024010B500F0F0
:101780002FF80949096801F0F001F02292FAA2F25B
:10179000B2FA82F2D140054A515CC840044908605F
:1017A0000846006810BD00000838024032410008B9
:1017B0001C00002010B5FFF7E1FF0749096801F49C
:1017C000E0514FF4E05292FAA2F2B2FA82F2D14022
:1017D000024A515CC84010BD08380240324100083E
:1017E00070B50021002200230020274C246804F05B
:1017F0000C0424B1042C04D0082C41D103E023486C
:1018000040E023483EE0204C241F246804F03F01C0
:101810001D4C241F246804F4800484B11C4CB4FBC8
:10182000F1F5194C241F246847F6C076344096FA27
:10183000A6F6B6FA86F6F44005FB04F20FE0134C68
:10184000B4FBF1F5104C241F246847F6C0763440F1
:1018500096FAA6F6B6FA86F6F44005FB04F20A4CB0
:10186000241F246804F440344FF4403595FAA5F55C
:10187000B5FA85F5EC40641C6300B2FBF3F001E0BF
:10188000024800BF00BF70BD083802400024F400C9
:1018900000127A0038B504460025207800F00100D7
:1018A000002866D0F648006800F00C0004280DD02F
:1018B000F348006800F00C00082813D1F048001F1E
:1018C000006800F48000B0F5800F0BD1EC480838B8
:1018D0000068C0F3404000284BD06068002848D121
:1018E000012038BD0020E649891F0870FFF760FA23
:1018F000054608E0FFF75CFA401B41F28831884258
:1019000001D90320EDE7DE4808380068C0F3404005
:101910000028EFD12079DA49891F08706068A0B1EA
:10192000FFF746FA054608E0FFF742FA401B41F28E
:101930008831884201D90320D3E7D14808380068AC
:10194000C0F340400028EFD013E0FFF731FA05461E
:1019500008E0FFF72DFA401B41F28831884201D997
:101960000320BEE7C64808380068C0F3404000289E
:10197000EFD1207800F00200022869D1C048006849
:1019800000F00C0058B1BE48006800F00C000828B8
:1019900021D1BB48001F006800F48000D8B9B848C6
:1019A00008380068C0F3400020B1E068012801D089
:1019B000012096E7B2480838006820F0F800F822C5
:1019C00092FAA2F2B2FA82F2216991400843AC493C
:1019D000083908603CE0E06828B30120A9490860A4
:1019E000FFF7E6F9054606E0FFF7E2F9401B642839
:1019F00001D9032075E7A24808380068C0F3400009
:101A00000028F1D09E480838006820F0F800F8223D
:101A100092FAA2F2B2FA82F22169914008439849FF
:101A20000839086014E0002096490860FFF7C0F903
:101A3000054606E0FFF7BCF9401B642801D90320E6
:101A40004FE78F4808380068C0F340000028F1D104
:101A5000207800F0080008282CD16069A8B1012086
:101A600089490860FFF7A4F9054606E0FFF7A0F9E9
:101A7000401B642801D9032033E781486C3000689B
:101A8000C0F340000028F1D014E000207E49086037
:101A9000FFF78EF9054606E0FFF78AF9401B642838
:101AA00001D903201DE776486C300068C0F3400080
:101AB0000028F1D1207800F0040004286DD100BF87
:101AC0006F483830006840F080506D493831086008
:101AD0000846006800F08050009000BF00BF6B48CF
:101AE000006840F4807069490860FFF761F90546B5
:101AF00006E0FFF75DF9401B642801D90320F0E6FA
:101B00006248006800F480700028F2D000205C4930
:101B100068310870FFF74CF9054608E0FFF748F90F
:101B2000401B41F28831884201D90320D9E654484C
:101B300068300068C0F340000028EFD1207A504997
:101B400068310870A068A0B1FFF732F9054608E0D7
:101B5000FFF72EF9401B41F28831884201D903205A
:101B6000BFE6474868300068C0F340000028EFD067
:101B700013E0FFF71DF9054608E0FFF719F9401BD0
:101B800041F28831884201D90320AAE63C486830F6
:101B90000068C0F340000028EFD1A069F0B33848D6
:101BA000006800F00C00082872D0A069022850D10B
:101BB000002034490866FFF7FBF8054606E0FFF70A
:101BC000F7F8401B642801D903208AE62C4808381E
:101BD0000068C0F340600028F1D1D4E90701084350
:101BE00047F6C07292FAA2F2B2FA82F2616A9140AA
:101BF00008430122A16AC2EB51014FF4403292FA2C
:101C0000A2F2B2FA82F2914008434FF0706292FA67
:101C1000A2F2B2FA82F2E16A914000E03AE00843AF
:101C20001749091F0860012016490866FFF7C0F828
:101C3000054606E0FFF7BCF8401B642801D90320E5
:101C40004FE60F4808380068C0F340600028F1D024
:101C500020E000200B490866FFF7AAF8054606E0D9
:101C6000FFF7A6F8401B642801D9032039E6044891
:101C700008380068C0F340600028F1D10AE007E0AE
:101C80000838024000004742800E47420070004082
:101C9000012026E6002024E670B504462546681E8D
:101CA000B0F1807F01D301200FE0681E4FF0E021EA
:101CB00048610F214FF0FF3000F032FB00204FF061
:101CC000E021886107200861002070BD70B50446DE
:101CD0000D4604222946206800F036FD2068406C3D
:101CE00040F40040216848642068006840F001002A
:101CF00021680860002070BD01460868C06840F097
:101D000001000A68D0600868006840F001000A68B5
:101D100010600020704770B504460D46164600BF9F
:101D200094F83800012801D1022070BD012084F808
:101D3000380000BF022084F8390036B1042E1BD0D1
:101D4000082E31D00C2E5ED145E02946206800F0E7
:101D500009FD2068806940F00800216888612068DA
:101D6000806920F004002168886120688069296901
:101D700008432168886147E02946206800F02AFD71
:101D80002068806940F4006021688861206880696B
:101D900020F480602168886120688069296940EAB0
:101DA0000120216888612FE02946206800F04EFD5F
:101DB0002068C06940F008002168C8612068C069D7
:101DC00020F004002168C8612068C06929690843BF
:101DD0002168C86118E02946206800F073FD20687A
:101DE000C06940F400602168C8612068C06920F4BF
:101DF00080602168C8612068C069296940EA0120C3
:101E00002168C86100E000BF00BF012084F83900EC
:101E100000BF002084F8380000BF00BF85E710B580
:101E200004460CB9012010BD94F8390028B90020EF
:101E300084F83800204600F00CF8022084F83900BD
:101E4000211D206800F000FC012084F839000020EA
:101E5000E9E7704730B504460D460122294620685F
:101E600000F064FC0C492068884203D00B492068CC
:101E7000884201D1012000E0002028B12068406C98
:101E800040F40040216848642068006840F0010088
:101E900021680860002030BD0000014000040140BE
:101EA000F8B504460D4616462068006840F4806088
:101EB000216808602068006840F48070216808602C
:101EC000334600224FF00111204600F0ABF808B174
:101ED0000320F8BD2069B0F5804F05D1E8B240F08D
:101EE00001002168086144E005F44070F02141EAF6
:101EF000E0102168086132462649204600F001F9C9
:101F000030B1A06B042801D10120E2E70320E0E713
:101F1000E8B22168086132461E49891F204600F058
:101F2000F0F830B1A06B042801D10120D1E70320E3
:101F3000CFE700BF2068406900902068806900906A
:101F400000BF00BF2068006840F48070216808600E
:101F5000334600224FF00111204600F063F808B12B
:101F60000320B6E705F44070F12141EAE010216852
:101F7000086132460749891F204600F0C2F830B197
:101F8000A06B042801D10120A3E70320A1E70020D2
:101F90009FE700000800010070B504460D46164694
:101FA0002068006840F48070216808603346002291
:101FB0004FF00111204600F035F808B1032070BD44
:101FC0002069B0F5804F04D105F0FE00216808615A
:101FD00016E005F44070F02141EAE0102168086144
:101FE00032460F49204600F08CF830B1A06B04282F
:101FF00001D10120E3E70320E1E7E8B221680861AD
:1020000032460749891F204600F07BF830B1A06BAB
:10201000042801D10120D2E70320D0E70020CEE739
:10202000080001002DE9F04105460C4617461E4602
:102030004FF00008FEF7BCFE804687BB13E0701C23
:1020400088B12EB1FEF7B4FEA0EB0800B0420AD969
:10205000012085F8350000BF002085F8340000BF5E
:102060000320BDE8F081C4F3074001280AD12868A5
:102070004069A1B20840A1B2884201D101200BE021
:10208000002009E028688069A1B20840A1B2884216
:1020900001D1012000E000200028D0D02FE0FFE790
:1020A00012E0701C80B12EB1FEF782FEA0EB08009A
:1020B000B04209D9012085F8350000BF002085F81D
:1020C000340000BF0320CCE7C4F3074001280AD145
:1020D00028684069A1B20840A1B2884201D101201C
:1020E0000BE0002009E028688069A1B20840A1B295
:1020F000884201D1012000E000200028D1D1002039
:10210000AFE72DE9F04104460D4616460027FEF7DD
:102110004FFE07462DE020684069C0F38020B0B133
:102120002068006840F40070216808606FF48060E7
:10213000216848610420A063012084F8350000BFB5
:10214000002084F8340000BF0120BDE8F081701C3D
:1021500078B126B1FEF72CFEC01BB04209D9012090
:1021600084F8350000BF002084F8340000BF03204D
:10217000EBE7C5F3074001280AD120684069A9B2FE
:102180000840A9B2884201D101200BE0002009E0FB
:1021900020688069A9B20840A9B2884201D1012013
:1021A00000E000200028B6D00020CEE700B585B0C2
:1021B00001200090002001900290032003906946C6
:1021C0000248FEF7D9FC05B000BD00000000024047
:1021D00000B585B0C020009002200390122001902D
:1021E000012002900420049069460248FEF7C4FCD6
:1021F00005B000BD0004024010B50A480A49086055
:102200000A484860002108488160C1604FF480415D
:102210000161002141618161C1610162FEF7D2FD6E
:1022200010BD00000054004024000020A0860100E2
:1022300000B585B04FF4704000900120019000205F
:1022400002900320039069460248FEF795FC05B012
:1022500000BD0000000C024000B585B04FF4707066
:102260000090022001900020029002200390049030
:1022700069460248FEF780FC05B000BD0008024038
:102280000FB410B508480290532003900021049128
:1022900044F61F6105910021069102A8FFF7BFFDDA
:1022A00010BC5DF814FB0000000400400FB410B532
:1022B000602011904FF4807016904FF4FA601290E5
:1022C0000020139004201590002211A902A8FFF706
:1022D00022FD02A8FFF7A3FD02A8FFF7BAFD10BC7C
:1022E0005DF814FB10B500240CE0012000F068F844
:1022F000C82001F053FD022000F062F8C82001F070
:102300004DFD641C052CF0DB00F0A8F810BD0000AA
:1023100002480068C0F30220704700000CED00E0A6
:1023200010B5002807DA0A07140E054A00F00F035B
:102330001B1FD45403E00A07130E024A135410BDA6
:1023400018ED00E000E400E010B5044600224FF470
:1023500080511A48FEF720FD00224FF40051174823
:10236000FEF71AFD00224FF480411448FEF714FDD9
:1023700000224FF400411148FEF70EFD0C2C05D150
:10238000012211030D48FEF707FD16E00D2C05D1C3
:10239000012251030948FEF7FFFC0EE00E2C05D187
:1023A000012291030548FEF7F7FC06E00F2C04D14B
:1023B0000122D1030148FEF7EFFC10BD000C0240E2
:1023C00010B5044600224FF480511748FEF7E4FC94
:1023D00000224FF400511448FEF7DEFC00224FF4B7
:1023E00080411148FEF7D8FC00224FF400410E480E
:1023F000FEF7D2FC012C0AD1012211030A48FEF794
:10240000CBFC012291030848FEF7C6FC0BE0022C2E
:1024100009D1012251030448FEF7BEFC0122D10379
:102420000148FEF7B9FC10BD000C024010B50122B6
:1024300011030948FEF7B0FC012251030648FEF7DC
:10244000ABFC012291030448FEF7A6FC0122D10354
:102450000148FEF7A1FC10BD000C024010B500229F
:102460004FF480510A48FEF797FC00224FF40051C8
:102470000748FEF791FC00224FF480410448FEF724
:102480008BFC00224FF400410148FEF785FC10BD93
:10249000000C024010B52DED028BF0EE408AB0EE3C
:1024A000608AB2EE040AF4EEC08AF1EE10FA06DD9C
:1024B0000C20FFF749FF0A2001F070FC0CE0BAEE97
:1024C000040AF4EEC08AF1EE10FA05D20D20FFF7EF
:1024D0003BFF0A2001F062FCB2EE040AB4EEC08AAF
:1024E000F1EE10FA06DD0E20FFF72EFF0A2001F0B4
:1024F00055FC0CE0BAEE040AB4EEC08AF1EE10FA14
:1025000005D20F20FFF720FF0A2001F047FCFFF75C
:10251000A5FFBDEC028B10BD02480068401C0149BC
:10252000086070471400002000B593B000BF294830
:10253000006840F08050274908600846006800F0B5
:102540008050019000BF00BF00BF2348006840F4E6
:102550008040214908600846006800F480400190EE
:1025600000BF00BF012002900390022008904105A7
:10257000099108210A914FF4A8710B9102210C9145
:1025800007210D9102A8FFF785F908B1FEF7E6FAD9
:102590000F200E9002200F90002010904FF4A050BA
:1025A00011904FF48050129005210EA8FEF78EFF77
:1025B00008B1FEF7D3FAFEF7F5FB41F201018842BC
:1025C00005D10648006840F480700449086013B0E3
:1025D00000BD00004038024000700040003C024056
:1025E0001448006840F470001249086012480068FE
:1025F00040F001001049086000200F4908310860D0
:102600000D4800680D4908400B4908600C48091D39
:102610000860081F006820F48020091F086000205F
:1026200005490C3108604FF00060024980390860AC
:102630007047000088ED00E000380240FFFFF6FE22
:102640001030002470470000002202682C4B984292
:102650000ED0B0F1804F0BD02A4B984208D02A4BB5
:10266000984205D0294B984202D0294B984201D17B
:10267000012300E000231BB122F070024B681A43D3
:102680001F4B984220D0B0F1804F1DD01D4B984277
:102690001AD01D4B984217D01C4B984214D01C4B9B
:1026A000984211D01B4B98420ED01B4B98420BD036
:1026B0001A4B984208D01A4B984205D0194B9842B1
:1026C00002D0194B984201D1012300E000231BB135
:1026D00022F44072CB681A4302608B68C3620B68B5
:1026E0008362074B984202D0094B984201D10123E3
:1026F00000E000230BB10B690363012343617047C2
:10270000000001400004004000080040000C0040B0
:1027100000040140004001400044014000480140E5
:1027200000180040001C00400020004030B500238D
:10273000012404FA01F3046A9C430462046A02FA65
:1027400001F52C43046230BD30B50023042404FAA3
:1027500001F3046A9C430462046A02FA01F52C4303
:10276000046230BD30B5002400220023056A25F044
:1027700001050562026A4368846924F0700424F04C
:1027800003040D682C4322F002028D682A430F4D8A
:10279000A84202D00E4DA84201D1012500E000253B
:1027A0006DB122F00802CD682A4322F0040223F41E
:1027B000807323F400734D692B438D692B43436071
:1027C00084614D684563026230BD00000000014035
:1027D0000004014030B5002400220023056A25F0E2
:1027E00010050562026A4368846924F4E04424F415
:1027F00040740D6844EA052422F020028D6842EA04
:102800000512104DA84202D00F4DA84201D101255A
:1028100000E0002585B122F08002CD6842EA051271
:1028200022F0400223F4806323F400634D6943EAFD
:1028300085038D6943EA8503436084614D68856340
:10284000026230BD000001400004014030B50024A8
:1028500000220023056A25F480750562026A436838
:10286000C46924F0700424F003040D682C4322F49E
:1028700000728D6842EA0522104DA84202D0104D28
:10288000A84201D1012500E0002585B122F40062B3
:10289000CD6842EA052222F4806223F4805323F4B7
:1028A00000534D6943EA05138D6943EA05134360FC
:1028B000C4614D68C563026230BD00000000014084
:1028C0000004014030B5002200230024056A25F4ED
:1028D00080550562036A4468C26922F4E04222F42A
:1028E00040720D6842EA052223F400538D6843EAE2
:1028F00005330A4DA84202D0094DA84201D1012555
:1029000000E0002525B124F480444D6944EA851493
:102910004460C2614D680564036230BD000001403F
:102920000004014010B5044605230222D0212046B0
:10293000FEF7D8FA18B101E0FEF710F9FCE700BF86
:102940002046FEF73BFA0128FAD110BD7FB582B0D0
:1029500005460E461C464FF47A70012304AA314600
:1029600000902846FEF79EFC00BF2846FEF726FA98
:102970000128FAD14FF47A700123224631460090A3
:102980002846FEF775FB00BF2846FEF717FA012818
:10299000FAD106B070BDFFB581B005460E461C46A3
:1029A0000A9F4FF47A70012303AA3146009028460B
:1029B000FEF778FC00BF2846FEF700FA0128FAD19E
:1029C0004FF47A703B462246314600902846FEF787
:1029D0004FFB00BF2846FEF7F1F90128FAD105B0F8
:1029E000F0BD37B582B004460D464FF47A7001232E
:1029F00004AA294600902046FEF754FC00BF20465A
:102A0000FEF7DCF90128FAD14FF47A70012301AA0C
:102A1000294600902046FEF72BFB00BF2046FEF71C
:102A2000CDF90128FAD19DF8040005B030BD2DE99B
:102A3000FC4106460F4614461D468DF804408DF8AD
:102A400005504FF47A70022301AA394600903046AF
:102A5000FEF728FC00BF3046FEF7B0F90128FAD196
:102A6000BDE8FC81F0B585B006460F4614460E2041
:102A700001AB3B22394600903046FFF78CFF00BF88
:102A80003046FEF79BF90128FAD19DF805009DF824
:102A9000041040EA012000B220809DF807009DF854
:102AA000061040EA012000B260809DF809009DF800
:102AB000081040EA012000B2A0809DF80B009DF8AC
:102AC0000A1040EA012005B200EE105AF8EEC00AE2
:102AD0009FED111A80EE810ADFED100A30EE200A18
:102AE00084ED030A9DF80D009DF80C1040EA0120CA
:102AF00000B2E0809DF80F009DF80E1040EA012022
:102B000000B220819DF811009DF8101040EA0120CC
:102B100000B2608105B0F0BD0000AA43B81E1242A9
:102B2000F8B505460E4617461C466B463A463146F2
:102B30002846FFF70BFF00BF2846FEF73FF90128A4
:102B4000FAD19DF8000000F0E70040EAC400C0B2EE
:102B500000909DF800303A4631462846FFF767FF5F
:102B600000BF2846FEF72AF90128FAD1F8BD2DE961
:102B7000F04104460D4616461F463B46324629465E
:102B80002046FFF754FF00BF2046FEF717F9012843
:102B9000FAD1BDE8F081F8B505460E4617461C4649
:102BA0006B463A4631462846FFF7D0FE00BF28461E
:102BB000FEF704F90128FAD19DF8000000F0E700C3
:102BC00040EAC400C0B200909DF800303A46314659
:102BD0002846FFF72CFF00BF2846FEF7EFF8012834
:102BE000FAD1F8BD03B401984100009850EAC12021
:102BF00018BF04204A0D18BF40F0010040F2FF72D8
:102C0000B2EB515F08BF40F00200012808BF052069
:102C100002B070470000000070B59B482DED020B1C
:102C20002DED068B079D25F00044A04218DC974847
:102C3000844202DC0AD1069840B19DED060BBDEC42
:102C4000068B02B0BDE8704001F04EB8002DCCBF3D
:102C50009FED8F0B9FED900BBDEC068B02B070BD0E
:102C60008F48A04215DD8F48A042D8BF4FF0FF34F7
:102C700058DD9DED060B51EC100BFFF7B3FF042858
:102C800008BF01F065F89DED060BBDEC068B02B0A8
:102C900070BD9DED060B51EC100B01F08BF8CDE9EA
:102CA000060181489FED828BA0423CDD8248A04214
:102CB0001FDD00249FED82AB9DED060B53EC1A2B1C
:102CC00051EC100BFDF78EFA9DED060B41EC190B44
:102CD00053EC1A2B51EC100BFDF72BFB53EC182B7C
:102CE000FDF721FB53EC192BFDF795FBCDE9060110
:102CF00049E09DED060B012453EC182B51EC100B11
:102D0000FDF770FA9DED060B41EC190B53EC182BF7
:102D100051EC100BFDF707FB53EC192BFDF77BFB78
:102D2000CDE906012FE06848A0421FDD02249FED97
:102D3000689B9DED060B53EC192B51EC100BFDF726
:102D4000F8FA53EC182BFDF74DFA9DED060B41EC0C
:102D5000180B53EC192B51EC100BFDF7E4FA53EC64
:102D6000182BFDF758FBCDE906010CE09DED060B95
:102D7000032453EC102B9FED580B51EC100BFDF777
:102D80004AFBCDE906019DED060B53EC102B51ECEF
:102D9000100BFDF7CEFA41EC180B53EC182BFDF796
:102DA000C8FA41EC190B4E480621B0EE490AF0EE84
:102DB000690A784400F001FF53EC182B51EC100B1A
:102DC000FDF7B7FA41EC180B4648B0EE490AF0EEB1
:102DD000690A0521784400F0F0FE53EC192B51EC00
:102DE000100BFDF7A6FA41EC100B51EC180B53EC4D
:102DF000102B002C0EDAFDF7F5F99DED061B53ECB8
:102E0000112BFDF796FA9DED061B53EC112BFDF7E8
:102E10008DFA35E0FDF7E6F99DED061B53EC112B1D
:102E2000FDF787FA41EC100B2F48784400EBC40003
:102E300090ED001B51EC100B53EC112BFDF773FAC6
:102E40009DED061B53EC112BFDF76DFA41EC100BB9
:102E50002648784400EBC40090ED001B51EC100BA9
:102E600053EC112BFDF762FA41EC100B002DA2BFC1
:102E7000BDEC068B02B070BD51EC100B81F000412F
:102E800041EC100B01E70000000010440000F07F4F
:102E9000182D4454FB21F93F182D4454FB21F9BF50
:102EA0000000DC3F0000203E0000F33F0000000077
:102EB000000000000000F03F0000E63F00000000BE
:102EC00000000000000000400080034000000000FF
:102ED000000000000000F83F000000000000F0BF0C
:102EE000FA130000B01300003A130000F2120000C1
:102EF0002DE9F04D2DED040B2DED0E8B96B0DDE997
:102F00002550279CDDF890A025F0004624F00048CD
:102F1000BAF1000F14BF0121002101EB4502FC4969
:102F200053184A1093422AD3002814BF01230023C8
:102F300003EB44030B44F7498B4220D358EA0001CA
:102F40009FEDF59B76D0DFF8D8B35D4503D1BAF19C
:102F5000000F05D188E0BAF1000F08BF002100D0B2
:102F6000012101EB450111F5001F08D8002814BF0D
:102F70000121002101EB440111F5001F0BD99DED4A
:102F8000261B9DED240B16B0BDEC0E8B04B0BDE8E6
:102F9000F04D00F0B3BE0027002DBCBFE1498845CD
:102FA00021DAE1498845A8BF02271CDAC3451ADCAB
:102FB000DE4901EB2851142908DDC1F1340220FA61
:102FC00002F101FA02F282420DD108E058B9C1F1D2
:102FD000140228FA02F101FA02F2424503D101F08B
:102FE0000101C1F1020756EA0A0124D1002C22DABC
:102FF000002D18BF022F01D0012F0AD0022000F0AF
:10300000C7FE16B0BDEC0E8B04B0BDE8F04D00F06D
:1030100053BE022000F0BCFE00F04EFE51EC100B3F
:1030200081F0004141EC100B16B0BDEC0E8B04B0EA
:10303000BDE8F08D18E09FEDBEAB9FEDBF8B002883
:1030400071D1B848804522D105F1804010F580103B
:1030500008BFBAF1000F07D0B3450ADC002CA8BFA7
:103060009DED260BE0DA0DE0B0EE490AF0EE690ABC
:10307000DAE7002C06DA9DED260B51EC100B81F0FF
:1030800000416FE0AE48784490ED000BCCE7D845A6
:103090004DD1002C48DA2EB186423AD1BAF1000F58
:1030A00042D126E0BAF1000F13D0022000F070FEEA
:1030B00000F03EFE8DED020B9DED240B8DED000B1F
:1030C00010EE900A039961F31E0003909DED020B30
:1030D000AAE78DED02AB9DED240B1AEE901A10EECF
:1030E000900A8DED000B61F31E0003909DED020B25
:1030F0009AE78DED028B9DED240B18EE901A10EEE1
:10310000900A8DED000B61F31E0003909DED020B04
:103110008AE709DA9DED240B51EC190B53EC102BC7
:10312000FDF779F91EE020E09DED240B7CE7864257
:103130001BDAB4F1804F0DD0A4F10050B0F1FF5074
:1031400013D1002D11DB9DED240B51EC100B00F081
:10315000B9FF07E09DED240B53EC102B51EC100B45
:1031600000F0C2BC41EC100B5EE79DED240B51EC6E
:10317000100B00F01FFEBAF1000FCDE90E0142D195
:103180009FED710B46B3A6F1E040B0F17F600CD02B
:103190005E4538D1002D00DAA7B3022F0CBF012005
:1031A0004FF0FF30FDF7F2FADCE7002D01DD002CD7
:1031B0000DDA002D01DD002C1FDB002D16DA002CAE
:1031C00014DB012F08BF9FED620B3FF42DAFB0EE73
:1031D0004A0AF0EE6A0A27E7022F18BF002D0CD02A
:1031E000012F0AD1002DFFF61FAF06E0002DB8BF5A
:1031F000002C08DA012F3FF417AFB0EE480AF0EECA
:10320000680A11E71BE0012000EBE57050EA0701B6
:1032100015D0791EB0EE498AF0EE698A084308BFDE
:103220009FED4D8B4E480025804570DD4D494E4841
:10323000884514DDB0420DDB002C19DB2FE00120A6
:1032400000F0A6FD16B0BDEC0E8B04B0BDE8F04D4D
:1032500000F05EBDB34502DC002C09DC1FE08642B5
:1032600002DA002C1BDA03E05E452BDD002C16DDB4
:10327000022000F08DFD00F05BFD8DED020B53ECA4
:103280001A2B51EC180BFDF754F8CDE90001039906
:10329000019861F31E0003909DED020BC4E602202D
:1032A00000F076FD00F054FD10EE901A18EE900A32
:1032B0008DED020B8DED008B61F31E0003909DEDF3
:1032C000020BB1E69DED0E0B53EC192B51EC100BDC
:1032D000FDF729F89FED260BCDE9080153EC102BE3
:1032E0009DED080B51EC100BFDF723F89FED221B11
:1032F00053EC112BFDF71AF89DED081B53EC112B25
:10330000FDF717F89FED1E1B53EC112B3CE08CE0F2
:10331000FFFF1F00FFFF0F00000000000000F03F54
:103320000000F03F0000F07F0000404301FCFFFF81
:10333000000000000000F07F00000000000000001E
:10334000DE1100000000000000000000000000800E
:10335000000000000000F0FF000000000000F0BFCF
:103360000000E0410000F043FFFFEF3F00000000DD
:10337000000000000000D03F555555555555D53F2C
:10338000000000000000E03FFCF7D0FF9DED080BBF
:1033900041EC1A0B53EC102B51EC100BFCF7C9FF4E
:1033A00053EC1A2BFCF7C5FF41EC1A0B9FEDFE0BFB
:1033B00053EC102B9DED080B51EC100BFCF7B9FFF3
:1033C00041EC1B0B9FEDFA0B51EC1A0B53EC102B3D
:1033D000FCF7AFFF41EC1A0B9FEDF70B53EC102BF2
:1033E0009DED080B51EC100BFCF7A3FF53EC1A2BCF
:1033F000FCF799FF41EC1A0B51EC1B0B53EC1A2B09
:10340000FCF7F0FE0690CDE906519DED060B53EC5E
:103410001B2B51EC100BFCF786FF53EC1A2BFCF71F
:1034200085FF41EC100B00F0A1B90020B6F5801F1C
:103430000EDA9FEDE30B53EC102B9DED0E0B51ECD0
:10344000100BFCF776FFCDE90E016FF034000E464D
:1034500000EB2650A0F2FF37C6F31300DA4940F024
:103460007F6646F040568842D8BF002408DDD74921
:103470008142C8BF012403DC0024A6F580167F1C0E
:10348000D348784400EBC4000F9690ED00CB9DED3F
:103490000E0B53EC1C2B51EC100BFCF744FF9DED75
:1034A0000E0B41EC1B0B53EC1C2B51EC100BFCF7DF
:1034B00099FE41EC100B51EC190B53EC102BFCF75F
:1034C000AAFF41EC1D0B51EC1B0B53EC1D2BFCF721
:1034D00030FF41EC1A0BBF488DED10AB78441095CE
:1034E00090ED000B4FF0005040EA660000EB844086
:1034F0008DED080B00F5002009909DED080B53ECB5
:103500001C2B51EC100BFCF70EFF9DED0E1B53EC2A
:10351000112BFCF70BFF41EC100B53EC102B9DED26
:10352000100B51EC100BFCF704FF9DED080B41EC68
:103530001C0B53EC102B9DED100B51EC100BFCF7FA
:10354000F8FE53EC1B2BFCF7F1FE53EC1C2BFCF7A5
:10355000EAFE53EC1D2BFCF7ECFE41EC1C0B53EC8C
:103560001A2B51EC1A0BFCF7E4FE41EC1B0B9A48AA
:103570000621B0EE4B0AF0EE6B0A784400F01DFB1A
:10358000B0EE401AF0EE601AB0EE41DAF0EE61DA19
:1035900053EC1B2B51EC1B0BFCF7CBFE53EC1D2B00
:1035A000FCF7C7FE9DED100B41EC1B0B53EC1A2BE7
:1035B00051EC100BFCF716FE53EC1C2BFCF7B9FE7C
:1035C00053EC1B2BFCF70EFE9DED100B41EC1B0B7F
:1035D00053EC102B51EC100BFCF7ABFE41EC1D0B28
:1035E0009FED7FEB53EC1E2BFCF7FCFD53EC1B2BEC
:1035F000FCF7F8FD0890CDE908519DED080B53EC60
:103600001E2B51EC100BFCF78EFE53EC1D2BFCF720
:103610008AFE53EC1B2BFCF789FE9DED080B41EC59
:103620001D0B53EC102B9DED100B51EC100BFCF708
:1036300080FE41EC1B0B53EC1A2B51EC1D0BFCF7DD
:1036400078FE9DED080B41EC1A0B53EC102B51EC5E
:103650001C0BFCF76EFE53EC1A2BFCF7C3FD41EC80
:103660001A0B51EC1B0B53EC1A2BFCF7BBFD0C9007
:10367000CDE90C519DED0C0B53EC1B2B51EC100BB9
:10368000FCF751FE53EC1A2BFCF750FE41EC1B0BE0
:103690009FED550B53EC102B9DED0C0B51EC100BCB
:1036A000FCF747FE41EC1A0B9FED510B51EC1B0B45
:1036B00053EC102BFCF73DFE41EC1B0B9FED4E0B2A
:1036C00053EC102B9DED0C0B51EC100BFCF731FE65
:1036D00053EC1B2BFCF786FD41EC100B484878445B
:1036E00000EBC40090ED001B51EC100B53EC112BC0
:1036F000FCF778FD41EC1B0B3846FDF747F8CDE9A8
:10370000080153EC1B2B51EC1A0BFCF76BFD41EC41
:10371000100B3C48784400EBC40090ED00CB51EC1A
:10372000100B53EC1C2BFCF75DFD9DED081B53ECBF
:10373000112BFCF757FD0690CDE906519DED080BC6
:1037400053EC102B9DED060B51EC100BFCF7EBFD31
:1037500053EC1C2BFCF7E7FD53EC1A2BFCF7E3FDB5
:1037600053EC1B2BFCF7E2FD41EC100B9DED261BEF
:1037700053EC102B8DED001B00959DED260B51ECAD
:10378000100BFCF7D6FD9DED000B41EC1A0B53EC32
:10379000102B9DED260B51EC100BFCF7C4FD9DED9D
:1037A000061B53EC112B2FE0000000604715F73F7C
:1037B000FE822B654715F73F44DF5DF80BAE543EA4
:1037C00000000000000040438E9803007AB60B0012
:1037D0005A0D0000880D0000920C0000000000004F
:1037E0000000000000000840000000E009C7EE3FB4
:1037F000FD033ADC09C7EE3FF5015B14E02F3EBE46
:103800001E0B0000D80A0000FCF793FD53EC1A2BA6
:10381000FCF7E8FC9DED060B41EC1A0B53EC102B6A
:103820009DED000B51EC100BFCF783FDCDE90C0175
:103830009DED0C0B51EC1A0B53EC102BFCF7D2FC4A
:10384000CDE902010C46AA498C422FDB611A0843DC
:1038500018D19DED0C0B53EC102B9DED020B51EC90
:10386000100BFCF760FD41EC1B0B9FEDA30B51EC23
:103870001A0B53EC102BFCF7B5FC53EC1B2BFCF78D
:1038800097FF2DD2022000F083FA00F051FA10EEDB
:10389000901A18EE900A8DED020B8DED008B61F3FE
:1038A0001E0003909DED020BFFF7BEBB944A24F06F
:1038B0000041914214D39349214408437FF4EFAC73
:1038C0009DED0C0B53EC102B9DED020B51EC100BEE
:1038D000FCF729FD53EC1A2BFCF76AFF7FF6DFACEF
:1038E00024F000408849894A002601EB2051824299
:1038F0002BDA481C4FF4801121FA00F02044844A4E
:10390000C0F30A517A44A1F2FF3192ED000B814AD3
:103910008DED080BCA4020EA0202C0F3130040F408
:103920008010C1F1140120FA01F60992002CB8BFF1
:1039300076429DED080B53EC102B9DED0C0B51ECDA
:10394000100BFCF7F0FCCDE90C019DED0C0B51ECDC
:103950001A0B53EC102BFCF745FC9FED6F0B0890F6
:10396000CDE9085153EC102B9DED080B51EC100BD9
:10397000FCF7DFFC41EC1B0B9FED690B53EC102BAC
:103980009DED080B51EC100BFCF7D3FC9DED0C0BDF
:1039900041EC1C0B53EC102B9DED080B51EC100B64
:1039A000FCF7C1FC53EC1A2BFCF7C0FC9FED5E1B2F
:1039B00053EC112BFCF7BDFC53EC1C2BFCF712FC59
:1039C00041EC1A0B51EC1B0B53EC1A2BFCF70AFCC5
:1039D000CDE902019DED020B53EC1B2B51EC100BBA
:1039E000FCF7A1FC53EC1A2BFCF7A0FC9DED020B9D
:1039F00041EC1A0B53EC102B51EC100BFCF799FC1B
:103A0000CDE908014A489DED080B0521784400F0F6
:103A1000D4F89DED081B51EC100B53EC112BFCF767
:103A200088FC9DED021B53EC112BFCF77FFCCDE9CC
:103A300006019DED020B53EC1A2B51EC100BFCF719
:103A400078FC53EC1A2BFCF7CDFB9FED3B0B41ECC4
:103A50001A0B53EC102B9DED060B51EC100BFCF7E1
:103A600062FC9DED060B41EC1B0B53EC102B9DED06
:103A7000020B51EC100BFCF75CFC53EC1B2BFCF71E
:103A8000CAFC53EC1A2BFCF74EFC9DED021B53ECC9
:103A9000112BFCF748FC53EC192BFCF747FCCDE944
:103AA000020101EB065001150029C8BF039015DC87
:103AB0009DED020B324651EC100BFCF7FFFDFFF7BA
:103AC00091F8042808BF00F043F932469DED020B3F
:103AD00051EC100BFCF7F2FDCDE902019DED020B5C
:103AE00051EC180B53EC102BFCF723FCFFF73ABBFF
:103AF0000000904000000000FE822B654715973CB7
:103B000000CC904000346F3F01FCFFFF0000E03F1D
:103B100060090000FFFF0F0000000000432EE63F99
:103B2000396CA80C615C20BEEF39FAFE422EE63FEC
:103B3000300800000000000000000000000000400D
:103B400000B52DED048BB0EE409AF0EE609A83B094
:103B500051EC190BFCF7C9FD41EC180B18EE100ADB
:103B600018EE901A8DED008B002818BF0120084335
:103B700020F00040C0F17F6000F1E040C00F14D0A1
:103B800019EE101A19EE900A8DED009B002918BF4E
:103B90000121084320F00040C0F17F6000F1E040C7
:103BA000C00F04BF012000F0F3F8B0EE480A03B0E4
:103BB000F0EE680ABDEC048B00BD70B504462DED37
:103BC000028B4D1E00EBC500B0EE408AF0EE608A1D
:103BD00090ED000B35F0060017D053EC182B51EC8C
:103BE000100BFCF7A6FB41EC100B6D1E04EBC5009F
:103BF00090ED001B51EC100B53EC112BFCF7F2FA7B
:103C000041EC100B35F00600E7D1022D36D0042D23
:103C10001CD0062D1CBFBDEC028B70BD53EC182BC5
:103C200051EC100BFCF785FB94ED0A1B53EC112BA8
:103C3000FCF7D8FA53EC182BFCF77BFB94ED081B30
:103C400053EC112BFCF7CEFA41EC100B53EC182B74
:103C500051EC100BFCF76DFB94ED061B53EC112B94
:103C6000FCF7C0FA53EC182BFCF763FB94ED040B44
:103C700053EC102BFCF7B6FA41EC100B53EC182B5D
:103C800051EC100BFCF755FB94ED021B53EC112B80
:103C9000FCF7A8FA53EC182BFCF74BFB94ED001B38
:103CA00053EC112BFCF79EFABDEC028B41EC100B90
:103CB00070BD0000000000009FED070B10B553EC35
:103CC000102B9FED070B51EC100BFCF7A4FB41EC04
:103CD000100B10BD000000000000000000000000FC
:103CE000000000000000F03F10B553EC102B51EC29
:103CF000100BFCF777FA41EC100B10BD10B553EC2C
:103D0000112B51EC100BFCF76DFA41EC100B10BDB0
:103D10009FED050B10B553EC102B51EC100BFCF77D
:103D20007AFB41EC100B10BD000000000000000009
:103D30009FED050B10B553EC102B51EC100BFCF75D
:103D4000F8FA41EC100B10BD0000000000000070FC
:103D50009FED050B10B553EC102B51EC100BFCF73D
:103D6000E8FA41EC100B10BD00000000000000104C
:103D700002E008C8121F08C1002AFAD17047704734
:103D8000002001E001C1121F002AFBD17047000092
:103D9000014908607047000020000020044A1168B3
:103DA00000BF034A1268521A8242FAD370470000D9
:103DB0001400002082B0CDE9000121F00040019004
:103DC0009DED000B02B051EC100B7047A6B04FF404
:103DD0004870B14908800020B0490870FDF7F2FA38
:103DE000FEF7A2FB00BFAE48006840F00100AC49FE
:103DF00008600846006800F00100219000BF00BF85
:103E000000BF0846006840F00200086008460068ED
:103E100000F00200219000BF00BF00BF084600680C
:103E200040F0040008600846006800F0040021909B
:103E300000BF00BF00BF0846006840F008000860EF
:103E40000846006800F00800219000BF00BF00BFD6
:103E50000846006840F0100008600846006800F05E
:103E60001000219000BF00BF00BF8D4814300068D3
:103E700040F001008A49143108600846006800F0EB
:103E80000100219000BF00BF00BF081F006840F084
:103E90000200091F08600846006800F00200219037
:103EA00000BF00BF00BF0846006840F40010086073
:103EB0000846006800F40010219000BF00BFFEF724
:103EC000B7F9FEF773F9FEF7C7F93922754913A858
:103ED000FCF776F9734890F839008DF885002C22AC
:103EE00017A96846FCF76CF913A80FC8FEF7C8F9C4
:103EF00039226C4913A8FCF763F96A4890F8390035
:103F00008DF885001C2268490BA8FCF759F92C2272
:103F100017A96846FCF754F913A80FC8FEF7C6F9AD
:103F2000FEF756F9FEF768F960480068006840F04F
:103F300001005E49096808605C48FEF7F3FC7522E1
:103F4000D0215A48FEF74DFD5449087008460078C4
:103F5000682803D001E0FCF701FEFCE700236B2298
:103F6000D0215248FEF763FD07231922D0214F4884
:103F7000FEF7FDFD00231C22D0214C48FEF7D0FDAA
:103F800000231B22D0214948FEF705FE22AAD0219A
:103F90004648FEF767FD0120FFF700FF002141487A
:103FA000FDF758FF3F48FDF7A7FE00213D48FDF70C
:103FB00051FF00213B48FDF789FEFEF737FA4FF429
:103FC000FA60FFF7EBFE4FF42F703649096848633B
:103FD00037490860FEF742FA4FF4FA70FFF7DEFE49
:103FE0004FF448702F490968486331490860FEF76B
:103FF00079F950E022AAD0212C48FEF733FD0120A8
:10400000FFF7CCFEBDF98C20BDF98A10BDF9880000
:10401000FCF708FC274880ED000ABDF98C20BDF9AB
:104020008A10BDF98800FCF7C7FC234880ED000A20
:10403000D0ED000A1F4890ED000AFEF72BFA01218F
:104040001E48FCF79DFE01281AD100BF01211B4824
:10405000FCF796FE0128F9D04FF400511848FCF700
:1040600097FE0D480088323000B20B4908800846A0
:10407000B0F90000B0F5FA6F02DB4FF44870088029
:104080000548B0F900000A4908600348B0F900008B
:10409000044909684863ADE7000000200A000020D9
:1040A00030380240600000209C00002024000020E6
:1040B000340400400C0000201000002000000240EA
:1040C000000C024000B52DED048B83B041EC190BC0
:1040D000FCF70BFB41EC180B18EE100A18EE901AC7
:1040E0008DED008B002818BF0120084320F0004010
:1040F000C0F17F6000F1E040C00F14D019EE101A3B
:1041000019EE900A8DED009B002918BF012108438C
:1041100020F00040C0F17F6000F1E040C00F04BF1C
:104120000120FFF735FE51EC180B03B0BDEC048BFA
:1041300000BD0000000001020304010203040607A1
:1041400008090000000000004FBB610567ACDD3FBF
:10415000182D4454FB21E93F9BF681D20B73EF3FAE
:10416000182D4454FB21F93FE2652F227F2B7A3C26
:10417000075C143326A6813CBDCBF07A8807703CDF
:10418000075C143326A6913CC4EB98999999C9BF52
:10419000711623FEC671BCBF6D9A74AFF2B0B3BF87
:1041A0009AFDDE522DDEADBF2F6C6A2C44B4A2BF47
:1041B0000D5555555555D53FFF8300922449C23FB3
:1041C0006E204CC5CD45B73F513DD0A0660DB13FE7
:1041D000EB0D76244B7BA93F11DA22E33AAD903FF9
:1041E000000000000000F03F000000000000F83F69
:1041F00000000000000000000000004003B8E23FA3
:10420000000000000000000006D0CF43EBFD4C3E54
:10421000033333333333E33FFFAB6FDBB66DDB3F49
:104220004D268F515555D53F01411DA96074D13F91
:1042300065DBC9934A86CD3FEF4E454A287ECA3F8B
:104240003E5555555555C53F93BDBE166CC166BF0D
:104250002CDE25AF6A56113FF16BD2C541BDBBBE06
:10426000D0A4BE726937663E000000000000000066
:10427000904200080000002024000000703D00086B
:10428000B44200082400002094040000803D00088F
:10429000000000000000000000000000000000001E
:1042A0000000000000000000000000000024F400F6
:0442B000000000000A
:040000050800018965
:00000001FF
